:07083D0012086A7F647E00CF
:10084400E4FDFCC3ED9FEE6480F8EC6480985015E1
:10085400E4FBFA0BBB00010ABA04F8BBFBF50DBDBF
:0508640000010C80DE24
:01086900226C
:10086A008FA0C2B0C2B1D2B67F017E00120844C2C4
:02087A00B622A4
:10087C008FA0D2B0C2B1D2B67F017E00120844C2A2
:02088C00B62292
:100800007F3812083D7F0E12083D7F0112083D7FA0
:100810000612083D7F8612083D7F4E12087C1208A2
:10082000407F4112087C1208407F4D12087C12085C
:0D083000407F4512087C7F647E0002084472
:0300000002088E65
:0C088E00787FE4F6D8FD758107020800B1
:00000001FF
