:1009A2004F6E6520310054776F20320054687265B3
:1009B20065203300466F75722034004669766520E3
:1009C2003500536978203600536576656E2037000E
:1009D20045696768742038004E696E652039002ABF
:1009E200005A65726F2030002300FF09A2FF09A898
:1009F200FF09AEFF09B6FF09BDFF09C4FF09CAFF1F
:100A020009D2FF09DAFF09E1FF09E3FF09EAFEFD66
:020A1200FBF7F0
:080A5100C2B1D2B67F017E00A4
:100A5900E4FDFCC3ED9FEC9E5015E4FBFA0BBB00D3
:0F0A6900010ABA04F8BBFBF50DBD00010C80E4D7
:010A7800225B
:0A0A99008FA0C2B0120A51C2B622AB
:0A0AA3008FA0D2B0120A51C2B62291
:100A79007F38120A997F0E120A997F01120A997F0B
:040A890006020A99BE
:090A1400F8860308E6FA08E6F989
:100A1D008B328A3389347F01120A997F80120A99A9
:100A2D00AB32AA33A9341208F6FF6017120AA37469
:100A3D00012534F534E43533F5337F0A7E00120A8F
:040A4D005980DD22CD
:10090F0078087C007D007BFF7A0979EC7E007F24DC
:10091F001208D0782C7C007D007BFF7A0A79107E3C
:10092F00007F041208D0120A797590F030940630C7
:10093F0095032096F47F147E00120A59E4F530F5E2
:10094F0031C3E5319404E5306480948050DBAF31DE
:10095F00742C2FF8E6F59020940DEF75F009A42470
:10096F0008120A143094FD20950EE53175F009A494
:10097F00240B120A143095FD20960EE53175F009FF
:10098F00A4240E120A143096FD0531E53170B2051C
:03099F003080AEF7
:03000000020A8D64
:0C0A8D00787FE4F6D8FD75813402090F73
:10080000E709F608DFFA8046E709F208DFFA803EDA
:1008100088828C83E709F0A3DFFA8032E309F608C7
:10082000DFFA8078E309F208DFFA807088828C832F
:10083000E309F0A3DFFA806489828A83E0A3F608E3
:10084000DFFA805889828A83E0A3F208DFFA804CBD
:1008500080D280FA80C680D4806980F28033801094
:1008600080A680EA809A80A880DA80E280CA8033FD
:1008700089828A83ECFAE493A3C8C582C8CCC58375
:10088000CCF0A3C8C582C8CCC583CCDFE9DEE78045
:100890000D89828A83E493A3F608DFF9ECFAA9F0C4
:1008A000EDFB2289828A83ECFAE0A3C8C582C8CC1A
:1008B000C583CCF0A3C8C582C8CCC583CCDFEADE33
:1008C000E880DB89828A83E493A3F208DFF980CC95
:1008D00088F0EF60010E4E60C388F0ED2402B4048E
:1008E0000050B9F582EB2402B4040050AF23234535
:0608F00082239008507302
:1008F600BB010689828A83E0225002E722BBFE0200
:09090600E32289828A83E4932232
:00000001FF
