:1008A4006F6E6520310074776F2032007468726552
:1008B40065203300666F75722034006669766520A2
:1008C4003500736978203600736576656E203700CD
:1008D40065696768742038006E696E652039007A2E
:0A08E40065726F2030002A00230027
:080A1000C2B1D2B67F017E00E5
:100A1800E4FDFCC3ED9FEC9E5015E4FBFA0BBB0014
:0F0A2800010ABA04F8BBFBF50DBD00010C80E418
:010A3700229C
:0A0A8D008FA0C2B0120A10C2B622F8
:0A0A97008FA0D2B0120A10C2B622DE
:0609B1008B0B8A0C890D7E
:1009B700E4F50EF50FAB0BAA0CA90D850F82850E7A
:1009C700831209E3FF6014120A97050FE50F7002FF
:0B09D700050E7F0A7E00120A1880DA6D
:0109E20022F2
:100A5E008B088A09890A7F38120A8D7F0E120A8D39
:100A6E007F01120A8D7F82120A8DAB08AA09A90A8C
:030A7E000209B1B9
:10080000EE60030208A3EF14B40C0040030208A337
:1008100090081E75F003A4C58325F0C583730208F4
:100820004202084A02085202085A02086202086A92
:1008300002087202087A02088202088A02089202FA
:10084000089A7BFF7A0879A480567BFF7A0879AAF8
:10085000804E7BFF7A0879B080467BFF7A0879B8B2
:10086000803E7BFF7A0879BF80367BFF7A0879C6A5
:10087000802E7BFF7A0879CC80267BFF7A0879D49A
:10088000801E7BFF7A0879DC80167BFF7A0879E38B
:10089000800E7BFF7A0879EA80067BFF7A0879EC84
:0408A000120A5E22B8
:1008EE00D293D292D291D290C2902094077F017E61
:1008FE0000120800D290C2912094077F047E00124D
:10090E000800D291C2922094077F077E0012080041
:10091E00D292C2932094077F0B7E00120800D293CE
:01092E0022A6
:10092F00D293D292D291D290C2902095077F027E1D
:10093F0000120800D290C2912095077F057E001209
:10094F000800D291C2922095077F087E00120800FE
:10095F00D292C2932095077F0A7E00120800D2938D
:01096F002265
:10097000D293D292D291D290C2902096077F037EDA
:1009800000120800D290C2912096077F067E0012C6
:100990000800D291C2922096077F097E00120800BB
:1009A000D292C2932096077F0C7E00120800D29349
:0109B0002224
:100A3800D296D295D294C293C292C291C290209477
:100A4800051208EE80F020950512092F80E82096FF
:060A5800E512097080E0C8
:03000000020A8170
:0C0A8100787FE4F6D8FD75810F020A387A
:1009E300BB010CE58229F582E5833AF583E02250C9
:1009F30006E92582F8E622BBFE06E92582F8E22213
:0D0A0300E58229F582E5833AF583E493222C
:00000001FF
