:07083B001208627F647E00D9
:10084200E4FDFCC3ED9FEC9E5015E4FBFA0BBB00EC
:0F085200010ABA04F8BBFBF50DBD00010C80E4F0
:010861002274
:100862008FA0C2B0C2B1D2B67F017E00120842C2CE
:02087200B622AC
:100874008FA0D2B0C2B1D2B67F017E00120842C2AC
:02088400B6229A
:100800007F3812083B7F0E12083B7F0112083B7FA6
:100810000612083B7F8612083B7F4E1208741208AE
:100820003E7F4112087412083E7F4D120874120870
:0B0830003E7F4512087412083E80FE57
:030000000208866D
:0C088600787FE4F6D8FD758107020800B9
:00000001FF
